:100000000C94B1000C94FE020C94CE000C94CE0023
:100010000C94CE000C94CE000C94CE000C94CE0028
:100020000C94CE000C94CE000C94CE000C94EF02F5
:100030000C94CE000C94CE000C94CE000C94CE0008
:100040000C94CE000C94CE000C94CE000C94CE00F8
:100050000C94CE000C94CE000C94CE000C94CE00E8
:100060000C94CE000C94CE0000407A10F35A00A0FD
:10007000724E18090010A5D4E80000E87648170071
:1000800000E40B54020000CA9A3B000000E1F505B1
:10009000000080969800000040420F000000A086FB
:1000A00001000000102700000000E803000000002D
:1000B0006400000000000A000000000001000000D1
:1000C00000002C76D888DC674F0823DFC1DFAE59EB
:1000D000E1B1B796E5E3E453C63AE651997696E87E
:1000E000E6C28426EB898C9B62ED407C6FFCEFBC02
:1000F0009C9F40F2BAA56FA5F490055A2AF75C932D
:100100006B6CF9676DC11BFCE0E40D47FEF520E662
:10011000B500D0ED902E0300943577050080841E45
:10012000080000204E0A000000C80C333333330FA0
:10013000986E12831141EF8D2114893BE65516CF3D
:10014000FEE6DB18D1844B381BF77C1D901DA4BB49
:10015000E424203284725E228100C9F124ECA1E5FE
:100160003D2711241FBECFEFD8E0DEBFCDBF11E089
:10017000A0E0B1E0EEE5F6E102C005900D92A632F6
:10018000B107D9F721E0A6E2B1E001C01D92AC327F
:10019000B207E1F70E9459020C942D0B0C94000059
:1001A00088E48093B8000895ECEBF0E0108294EAC4
:1001B000908390819923ECF79091B900987F9830C3
:1001C000A1F48093BB0084E88093BC00ECEBF0E0EA
:1001D00080818823ECF79091B900987F983139F0AD
:1001E00081E0903429F480E0089581E0089580E072
:1001F00008958093BB0084E88093BC00ECEBF0E0B2
:1002000080818823ECF79091B900987F81E0983243
:1002100009F480E0089584EC8093BC00ECEBF0E0FE
:1002200080818823ECF78091BB00089584E9809356
:10023000BC000895E0ECF0E0908195FFFDCF809345
:10024000C6000895CF93DF93EC018881882331F0B5
:1002500021960E941A0189918111FBCFDF91CF91E4
:10026000089580EE0E94D40080EA0E94F9008BE994
:100270000E94F9000E94160180EE0E94D40081EADB
:100280000E94F90080E10E94F9000E941601089581
:100290004F925F926F927F928F929F92AF92BF9296
:1002A000CF92DF92EF92FF92CF9380EE0E94D40024
:1002B00084EB0E94F9000E94160181EE0E94D40096
:1002C0000E940B01C82ED12CDC2CCC240D2C000C50
:1002D000EE08FF080E940B01C82A7601DD24CC2419
:1002E0000E940B01C82F0E940B014C2F50E0542F8D
:1002F0004427052E000C660B770B482BC42AD52A01
:10030000E62AF72A0E941601B60180E090E00E94DA
:1003100054064B015C01CD2CDE2CEF2CFF24B601E2
:1003200080E090E00E9454062B013C0125E83BEE62
:1003300041ED5FE30E94E7069B01AC01C501B401FA
:100340000E9446050E9425060E94540624E134E1DD
:1003500044EC50E40E94B305D62EE72EF82EC92FA8
:100360002DE33AE047E15FE3C501B4010E94E706EF
:100370004B015C0126EF38E24CE55FE3C301B201BB
:100380000E94E7069B01AC01C501B4010E9446052D
:100390000E9425060E94540624E134E144EC50E416
:1003A0000E94B305962EA72EB82EC92E262F372FC2
:1003B000482F592F6D2D7E2D8F2D9C2F0E94E206E8
:1003C000181624F0D92CEA2CFB2CCC2D6D2D7E2D6B
:1003D0008F2D9C2FCF91FF90EF90DF90CF90BF900B
:1003E000AF909F908F907F906F905F904F90089507
:1003F000CF93DF930E941903EC0185E290E099838B
:10040000888322E02A839C838B8321E02D839F8332
:100410008E8325E028879A87898723E02B879D870D
:100420008C8784E08E87E9E6F0E0808182608083BB
:10043000E89ACE010E948B03CE01DF91CF910895FF
:10044000E1E8F0E0808188608083AFE6B0E08C91E5
:1004500082608C9388E09DE390938900809388006C
:1004600080818360808308959093C5008093C40049
:10047000E1ECF0E0808188698083E2ECF0E080814B
:10048000866080830895CF93DF93FC01208122232F
:1004900069F0DC011196E0ECF0E0C6ECD0E0908170
:1004A00095FFFDCF28832D912111F9CFDF91CF91B9
:1004B0000895CF93DF93CDB7DEB7AE970FB6F8941C
:1004C000DEBF0FBECDBF85E0E6E0F1E0DE011196B4
:1004D00001900D928A95E1F780EE8AB98BB987E693
:1004E00090E00E9434020E94D0000E9431018BE013
:1004F00091E00E9443022FE78AE196E0215080407C
:100500009040E1F700C0000078940E94F8017C015F
:100510000E942002712C662463946E01EEE0CE0EE0
:10052000D11C0F2EFFE48F2EF6E49F2EF02D0F2E00
:10053000F6E4AF2EB12CF02D0E9448018E010A5F27
:100540001F4F22E046E00E94780780912701882310
:1005500051F010922701C7010E94F304892B19F072
:10056000C7010E94700380912601882329F310920D
:1005700026017624F9F088E0E8E1F1E0D601019067
:100580000D928A95E1F7BE016A5F7F4FC6010E9416
:10059000B908FFEF23ED80E3F15020408040E1F700
:1005A00000C00000C6010E94220180E291E00E948A
:1005B000220105C0F60191828082B382A282F601F7
:1005C00001900020E9F7EC19EEA7AE01445F5F4F00
:1005D000BE016F5F7F4FC7010E948304ADCF1F92A2
:1005E0000F920FB60F9211248F9381E08093260112
:1005F0008F910F900FBE0F901F9018951F920F9222
:100600000FB60F9211248F9381E0809327018F9171
:100610000F900FBE0F901F901895FC01A62FB72FBB
:100620009C012B5F3F4F91919D93E217F307D9F700
:10063000089580E190E00E94980720E1FC0111926A
:100640002A95E9F70895CF93DF93EC01DA01E88169
:10065000F981508181E090E00A8002C0880F991FE3
:100660000A94E2F78095852380836EBD0DB407FE62
:10067000FDCF8EB58F872115310579F0FD012A0F49
:100680003B1FDF0190819EBD0DB407FEFDCF9EB5DF
:100690009C933196E217F307A1F7E881F981208155
:1006A00081E090E00A8002C0880F991F0A94E2F767
:1006B000822B80838F85DF91CF91089560620E94A5
:1006C000230308950E942303089520E030E040E0D2
:1006D00050E06FEF0E94230308950E946503089580
:1006E00020E030E040E050E061EE0E9423030895F6
:1006F000CF93DF931F92CDB7DEB720E7298321E0A8
:1007000030E0AE014F5F5F4F67E00E945E030F90E5
:10071000DF91CF910895FF920F931F93CF93DF93B3
:100720001F92CDB7DEB78C01DC01ED91FC911197E2
:10073000429181E090E09C0112960C90129702C0C9
:10074000220F331F0A94E2F7242B20831396ED9196
:10075000FC91149742919C0115960C90159702C03C
:10076000220F331F0A94E2F7242B2083ED91FC9192
:10077000119740819C0112960C90129702C0220F93
:10078000331F0A94E2F7242B20831396ED91FC91FA
:1007900014973081AC0115960C90159702C0440F48
:1007A000551F0A94E2F7242F2095232320832CB58C
:1007B00020612CBD2CB520642CBD1696ED91FC91CA
:1007C000179742919C0118960C90189702C0220F1F
:1007D000331F0A94E2F7242B20831996ED91FC91A4
:1007E0001A9742919C011B960C901B9702C0220FF6
:1007F000331F0A94E2F7242B20831C96ED91FC9181
:100800001D9722911E960C9002C0880F991F0A9482
:10081000E2F78095822380838CB5877F8CBD8CB571
:100820008B7F8CBD8CB58E7F8CBD8CB58D7F8CBD48
:100830008DB581608DBD8CB58F7D8CBD20E030E0A5
:1008400040E050E062EEC8010E94230320E030E067
:1008500040E050E061EEC8010E942303C8010E94FD
:1008600078038FE0898321E030E0AE014F5F5F4F76
:1008700060E0C8010E945E030F2EFFE3FF2EF02D03
:10088000F98221E030E0AE014F5F5F4F61E0C801C7
:100890000E945E03F98221E030E0AE014F5F5F4FBE
:1008A0006CE1C8010E945E0384E0898321E030E0AE
:1008B000AE014F5F5F4F6DE1C8010E945E03198278
:1008C00021E030E0AE014F5F5F4F62E0C8010E945F
:1008D0005E030F90DF91CF911F910F91FF900895CC
:1008E000CF93DF931F92CDB7DEB720E3298321E0BA
:1008F00030E0AE014F5F5F4F67E00E945E030F90F4
:10090000DF91CF910895CF92DF92EF92FF920F93F4
:100910001F93CF93DF9300D000D000D0CDB7DEB7C8
:100920008C016B017A010E947004BE016F5F7F4FE2
:10093000C6010E940D0325E030E0AE014F5F5F4F1E
:1009400060E1C8010E945E03BE016F5F7F4FC60178
:100950000E940D0325E030E0AE014F5F5F4F6AE07B
:10096000C8010E945E03D70192962C9130E0A70146
:100970004E5F5F4F60EAC8010E94230321E030E030
:10098000AE014A5F5F4F60E0C8010E9462038E8142
:100990008E7F8E8321E030E0AE014A5F5F4F60E0E2
:1009A000C8010E945E03D8011396ED91FC91149743
:1009B000208181E090E015960C9002C0880F991F6D
:1009C0000A94E2F7822B808326960FB6F894DEBF56
:1009D0000FBECDBFDF91CF911F910F91FF90EF9090
:1009E000DF90CF900895EF92FF920F931F93CF93D4
:1009F000DF931F92CDB7DEB78C01DC011396ED912A
:100A0000FC911497208181E090E015960C9002C033
:100A1000880F991F0A94E2F7809582238083C8018A
:100A20000E946D03F801878585FD09C084FD0AC019
:100A30000F2EFEEFEF2EFF24FA94F02D06C0E12CCE
:100A4000F12C03C0EE24EA94FE2CC8010E9470042D
:100A500021E030E0AE014F5F5F4F60E0C8010E94CF
:100A6000620389818160898321E030E0AE014F5FBC
:100A70005F4F60E0C8010E945E03C7010F90DF91E5
:100A8000CF911F910F91FF90EF9008955058BB2781
:100A9000AA270E945E050C94A8060E949A0638F0C8
:100AA0000E94A10620F039F49F3F19F426F40C941B
:100AB00097060EF4E095E7FB0C949106E92F0E944F
:100AC000B90658F3BA17620773078407950720F031
:100AD00079F4A6F50C94DB060EF4E0950B2EBA2FF4
:100AE000A02D0B01B90190010C01CA01A001112434
:100AF000FF27591B99F0593F50F4503E68F11A16E0
:100B0000F040A22F232F342F4427585FF3CF469570
:100B100037952795A795F0405395C9F77EF41F1692
:100B2000BA0B620B730B840BBAF09150A1F0FF0F5C
:100B3000BB1F661F771F881FC2F70EC0BA0F621F48
:100B4000731F841F48F4879577956795B795F79538
:100B50009E3F08F0B0CF9395880F08F09927EE0FCD
:100B60009795879508950E94C7050C94A8060E9442
:100B7000A10658F00E949A0640F029F45F3F29F040
:100B80000C94910651110C94DC060C9497060E946B
:100B9000B90668F39923B1F3552391F3951B550BCF
:100BA000BB27AA2762177307840738F09F5F5F4F40
:100BB000220F331F441FAA1FA9F335D00E2E3AF07F
:100BC000E0E832D091505040E695001CCAF72BD097
:100BD000FE2F29D0660F771F881FBB1F26173707E8
:100BE0004807AB07B0E809F0BB0B802DBF01FF271A
:100BF00093585F4F3AF09E3F510578F00C94910660
:100C00000C94DC065F3FE4F3983ED4F38695779529
:100C10006795B795F7959F5FC9F7880F911D9695D2
:100C2000879597F90895E1E0660F771F881FBB1F2E
:100C3000621773078407BA0720F0621B730B840BDB
:100C4000BA0BEE1F88F7E09508950E94C10688F060
:100C50009F5798F0B92F9927B751B0F0E1F0660F80
:100C6000771F881F991F1AF0BA95C9F714C0B130C1
:100C700091F00E94DB06B1E008950C94DB06672F2B
:100C8000782F8827B85F39F0B93FCCF386957795F0
:100C90006795B395D9F73EF49095809570956195D9
:100CA0007F4F8F4F9F4F0895E89409C097FB3EF404
:100CB00090958095709561957F4F8F4F9F4F9923A9
:100CC000A9F0F92F96E9BB279395F6958795779527
:100CD0006795B795F111F8CFFAF4BB0F11F460FFE7
:100CE0001BC06F5F7F4F8F4F9F4F16C0882311F03F
:100CF00096E911C0772321F09EE8872F762F05C053
:100D0000662371F096E8862F70E060E02AF09A95ED
:100D1000660F771F881FDAF7880F9695879597F9E2
:100D2000089597F99F6780E870E060E008959FEF6D
:100D300080EC089500240A94161617061806090672
:100D4000089500240A941216130614060506089541
:100D5000092E0394000C11F4882352F0BB0F40F4C9
:100D6000BF2B11F460FF04C06F5F7F4F8F4F9F4F09
:100D7000089557FD9058440F551F59F05F3F71F08B
:100D80004795880F97FB991F61F09F3F79F08795F2
:100D90000895121613061406551FF2CF4695F1DF7B
:100DA00008C0161617061806991FF1CF869571050B
:100DB000610508940895E894BB2766277727CB013F
:100DC00097F908950E94540708F48FEF08950E9440
:100DD000FA060C94A8060E949A0638F00E94A10612
:100DE00020F0952311F00C9491060C949706112491
:100DF0000C94DC060E94B90670F3959FC1F3950F21
:100E000050E0551F629FF001729FBB27F00DB11D8E
:100E1000639FAA27F00DB11DAA1F649F6627B00D1E
:100E2000A11D661F829F2227B00DA11D621F739F07
:100E3000B00DA11D621F839FA00D611D221F749F15
:100E40003327A00D611D231F849F600D211D822F5C
:100E5000762F6A2F11249F5750409AF0F1F0882383
:100E60004AF0EE0FFF1FBB1F661F771F881F9150B0
:100E70005040A9F79E3F510580F00C9491060C94C8
:100E8000DC065F3FE4F3983ED4F38695779567954B
:100E9000B795F795E7959F5FC1F7FE2B880F911DDA
:100EA0009695879597F90895990F0008550FAA0B05
:100EB000E0E8FEEF16161706E807F907C0F012166D
:100EC0001306E407F50798F0621B730B840B950B70
:100ED00039F40A2661F0232B242B252B21F40895C5
:100EE0000A2609F4A140A6958FEF811D811D089562
:100EF000EF920F931F93CF93DF93E80147FD02C05A
:100F000034E001C034E1042E000C550B57FF03C040
:100F1000519541955109E32E022F242FAE010E94D5
:100F2000C408CE01DF91CF911F910F91EF900895EA
:100F30000F931F93CF93DF938230910510F482E0DB
:100F400090E0E0912A01F0912B0120E030E0A0E058
:100F5000B0E0309719F14081518102811381481727
:100F60005907C8F08417950769F4109731F0129665
:100F70000C93129713961C9327C000932A01109389
:100F80002B0122C02115310519F04217530718F41F
:100F90009A01BD01EF01DF01F801DBCF2115310519
:100FA000F9F0281B390B2430310580F48A819B81AC
:100FB0006115710521F0FB019383828304C0909336
:100FC0002B0180932A01FE01329644C0FE01E20FFC
:100FD000F31F8193919322503109398328833AC0BA
:100FE0002091280130912901232B41F42091020105
:100FF00030910301309329012093280120910001B1
:10100000309101012115310541F42DB73EB74091D2
:10101000040150910501241B350BE0912801F0914A
:101020002901E217F307A0F42E1B3F0B28173907FD
:1010300078F0AC014E5F5F4F2417350748F04E0F34
:101040005F1F50932901409328018193919302C01F
:10105000E0E0F0E0CF01DF91CF911F910F91089573
:10106000CF93DF93009709F481C0FC01329713827C
:101070001282A0912A01B0912B01109781F4208156
:101080003181820F931F2091280130912901281767
:10109000390751F5F0932901E093280167C0ED016C
:1010A00020E030E0CE17DF0740F44A815B819E01EB
:1010B00041155105F1F0EA01F5CFD383C283408198
:1010C0005181840F951FC817D90759F488819981D8
:1010D000840F951F0296918380838A819B819383DD
:1010E00082832115310529F4F0932B01E0932A0125
:1010F0003DC0E901FB83EA8349915991C40FD51F93
:10110000EC17FD0761F480819181840F951F029691
:10111000E90199838883828193819B838A83E0E0BC
:10112000F0E012968D919C911397009719F0FD01B4
:10113000DC01F7CF8D919C9111979D012E5F3F4F60
:10114000820F931F20912801309129012817390718
:1011500069F4309729F410922B0110922A0102C0F1
:1011600013821282B0932901A0932801DF91CF91BD
:101170000895FB01DC010D900020E9F71197019023
:101180000D920020E1F70895A9E0B0E0EAECF8E064
:101190000C94FC0A6A01122FB02E2BE3201720F0CA
:1011A000FF24F394F00E02C02CE3F22E0F2D27E063
:1011B000AE014F5F5F4F0E941E0ABC014981842F20
:1011C0008970813031F0E1FC06C0E0FE06C090E29B
:1011D00005C09DE203C09BE201C090E05E2D50710E
:1011E00043FF3CC0911102C083E001C084E081173D
:1011F00018F4212F281B01C020E051110BC0F6016B
:10120000822F30E2882319F031938150FBCFC20E38
:10121000D11C20E0992329F0D6019C93F601319648
:101220006F01C6010396E2FE0AC03EE4D6013C937C
:1012300041E411964C93119712963C9306C03EE6FA
:10124000F601308341E641833283FC01322F40E2D4
:10125000332309F442C041933150FACF42FF44C0D6
:10126000911102C083E001C084E0811718F4212F9E
:10127000281B01C020E051110BC0F601822F30E283
:10128000882319F031938150FBCFC20ED11C20E08E
:10129000992329F0D6019C93F60131966F01C6017E
:1012A0000396E2FE0BC039E4D6013C933EE411966E
:1012B0003C93119736E412963C9307C039E6F60149
:1012C00030833EE6318336E63283FC01322F40E242
:1012D000332319F041933150FBCFFC01E20FF11D94
:1012E00010828EEF9FEFA6C021E030E0911102C086
:1012F00020E030E0161617061CF4FB01319602C000
:10130000E1E0F0E02E0F3F1FBB2021F0EB2DF0E0DD
:10131000319602C0E0E0F0E02E0F3F1FE12FF0E039
:101320002E173F071CF4121B212F01C020E08E2D29
:10133000887159F4F601822F30E2882319F0319335
:101340008150FBCFC20ED11C20E0992329F0D60199
:101350009C93F60131966F0151110BC0F601822F5B
:1013600090E3882319F091938150FBCFC20ED11CDA
:1013700020E00F2D060F9A81342F307144FF03C0F7
:10138000913309F40150101624F4093018F008E0E4
:1013900001C001E0AB0177FF02C040E050E0FB017B
:1013A000E41BF50BA1E0B0E0AC0FBD1FEA0FFB1F83
:1013B0008EE2A82E4B01801A91080B2D10E011959A
:1013C000019511094F3FBFEF5B0721F4D601AC92A5
:1013D00011966D01641775072CF08416950614F4A8
:1013E000818101C080E3415051093196D6011196A7
:1013F0007D014017510724F0D6018C936701E2CF9D
:101400006417750739F4963320F4953319F43111C4
:1014100001C081E3F6018083F701822F90E28823E7
:1014200019F091938150FBCFF701E20FF11D10826B
:1014300080E090E02996ECE00C94180B283008F03E
:1014400027E03327DA01990F311D87FD916000965F
:101450006105710539F432602E5F3D9330E32A95C2
:10146000E1F708959F3F30F080387105610509F07C
:101470003C5F3C5F3D93913008F08068911DDF93A5
:10148000CF931F930F93FF92EF92192F987F96950A
:10149000E92F96959695E90FFF27EE53FF4F992771
:1014A0003327EE24FF24A701E70105900894079451
:1014B00028F4360FE71EF81E491F511D660F771FCF
:1014C000881F991F0694A1F70590079428F4E70E4A
:1014D000F81E491F561FC11D770F881F991F661FD1
:1014E0000694A1F70590079428F4F80E491F561F9B
:1014F000C71FD11D880F991F661F771F0694A1F77C
:101500000590079420F4490F561FC71FD81F990F45
:10151000661F771F881F0694A9F78491109517708E
:1015200041F0D695C79557954795F794E7941A9546
:10153000C1F7E8E6F0E06894159015913591659152
:10154000959105907FE27395E118F10A430B560BD4
:10155000C90BD009C0F7E10CF11E431F561FC91F6C
:10156000D01D7EF4703311F48A95E6CFE8940150D3
:1015700030F0080F0AF40027021708F4202F2395F3
:10158000022F7A3328F079E37D932A95E9F710C08A
:101590007D932A9589F606949795679537951795C3
:1015A0001794E118F10A430B560BC90BD00998F0B8
:1015B00023957E9173957A3308F070E37C93201322
:1015C000B8F77E9170617D9330F0839571E37D93E0
:1015D00070E32A95E1F71124EF90FF900F911F918E
:1015E000CF91DF91992787FD909508952F923F9293
:1015F0004F925F926F927F928F929F92AF92BF9223
:10160000CF92DF92EF92FF920F931F93CF93DF93CE
:10161000CDB7DEB7CA1BDB0B0FB6F894DEBF0FBE2B
:10162000CDBF09942A88398848885F846E847D8478
:101630008C849B84AA84B984C884DF80EE80FD807A
:101640000C811B81AA81B981CE0FD11D0FB6F894F0
:0E165000DEBF0FBECDBFED010895F894FFCFB1
:10165E0000002C0120002030405161436F6E6E65FA
:10166E0063746564210D0A004E4F4445323A2000E2
:06167E0020200D0A00000F
:00000001FF
